{
  "_format": "hh-sol-artifact-1",
  "contractName": "VotingDapp",
  "sourceName": "contracts/VotingDapp.sol",
  "abi": [
    {
      "inputs": [],
      "stateMutability": "nonpayable",
      "type": "constructor"
    },
    {
      "anonymous": false,
      "inputs": [
        {
          "indexed": true,
          "internalType": "uint256",
          "name": "id",
          "type": "uint256"
        },
        {
          "indexed": false,
          "internalType": "string",
          "name": "title",
          "type": "string"
        },
        {
          "indexed": false,
          "internalType": "string",
          "name": "description",
          "type": "string"
        },
        {
          "indexed": false,
          "internalType": "uint256",
          "name": "duration",
          "type": "uint256"
        }
      ],
      "name": "PollCreated",
      "type": "event"
    },
    {
      "inputs": [
        {
          "internalType": "string",
          "name": "_title",
          "type": "string"
        },
        {
          "internalType": "string",
          "name": "_description",
          "type": "string"
        },
        {
          "internalType": "uint256",
          "name": "_duration",
          "type": "uint256"
        }
      ],
      "name": "createPoll",
      "outputs": [],
      "stateMutability": "nonpayable",
      "type": "function"
    },
    {
      "inputs": [
        {
          "internalType": "uint256",
          "name": "_pollId",
          "type": "uint256"
        }
      ],
      "name": "getNoVotes",
      "outputs": [
        {
          "internalType": "uint256",
          "name": "",
          "type": "uint256"
        }
      ],
      "stateMutability": "view",
      "type": "function"
    },
    {
      "inputs": [
        {
          "internalType": "uint256",
          "name": "_pollId",
          "type": "uint256"
        }
      ],
      "name": "getPollDetails",
      "outputs": [
        {
          "internalType": "string",
          "name": "title",
          "type": "string"
        },
        {
          "internalType": "string",
          "name": "description",
          "type": "string"
        },
        {
          "internalType": "uint256",
          "name": "startTime",
          "type": "uint256"
        },
        {
          "internalType": "uint256",
          "name": "duration",
          "type": "uint256"
        },
        {
          "internalType": "uint256",
          "name": "yesVotes",
          "type": "uint256"
        },
        {
          "internalType": "uint256",
          "name": "noVotes",
          "type": "uint256"
        },
        {
          "internalType": "bool",
          "name": "isActive",
          "type": "bool"
        }
      ],
      "stateMutability": "view",
      "type": "function"
    },
    {
      "inputs": [],
      "name": "getPollsCount",
      "outputs": [
        {
          "internalType": "uint256",
          "name": "",
          "type": "uint256"
        }
      ],
      "stateMutability": "view",
      "type": "function"
    },
    {
      "inputs": [
        {
          "internalType": "uint256",
          "name": "_pollId",
          "type": "uint256"
        }
      ],
      "name": "getYesVotes",
      "outputs": [
        {
          "internalType": "uint256",
          "name": "",
          "type": "uint256"
        }
      ],
      "stateMutability": "view",
      "type": "function"
    },
    {
      "inputs": [],
      "name": "owner",
      "outputs": [
        {
          "internalType": "address",
          "name": "",
          "type": "address"
        }
      ],
      "stateMutability": "view",
      "type": "function"
    },
    {
      "inputs": [
        {
          "internalType": "uint256",
          "name": "",
          "type": "uint256"
        }
      ],
      "name": "polls",
      "outputs": [
        {
          "internalType": "uint256",
          "name": "id",
          "type": "uint256"
        },
        {
          "internalType": "string",
          "name": "title",
          "type": "string"
        },
        {
          "internalType": "string",
          "name": "description",
          "type": "string"
        },
        {
          "internalType": "uint256",
          "name": "startTime",
          "type": "uint256"
        },
        {
          "internalType": "uint256",
          "name": "duration",
          "type": "uint256"
        },
        {
          "internalType": "uint256",
          "name": "yesVotes",
          "type": "uint256"
        },
        {
          "internalType": "uint256",
          "name": "noVotes",
          "type": "uint256"
        },
        {
          "internalType": "bool",
          "name": "isActive",
          "type": "bool"
        }
      ],
      "stateMutability": "view",
      "type": "function"
    },
    {
      "inputs": [
        {
          "internalType": "uint256",
          "name": "_pollId",
          "type": "uint256"
        },
        {
          "internalType": "string",
          "name": "_voteOption",
          "type": "string"
        }
      ],
      "name": "vote",
      "outputs": [],
      "stateMutability": "nonpayable",
      "type": "function"
    }
  ],
  "bytecode": "0x608060405234801561001057600080fd5b50600080546001600160a01b03191633179055610cd3806100326000396000f3fe608060405234801561001057600080fd5b50600436106100885760003560e01c80638da5cb5b1161005b5780638da5cb5b146100ee5780639a0040e414610119578063ac2f00741461013f578063e09959161461016657600080fd5b80630956abb81461008d57806324108475146100b357806339d63813146100c85780635dbb8063146100db575b600080fd5b6100a061009b366004610940565b61016e565b6040519081526020015b60405180910390f35b6100c66100c13660046109fc565b6101b1565b005b6100a06100d6366004610940565b610434565b6100c66100e9366004610a43565b61046e565b600054610101906001600160a01b031681565b6040516001600160a01b0390911681526020016100aa565b61012c610127366004610940565b610597565b6040516100aa9796959493929190610b0c565b61015261014d366004610940565b61073b565b6040516100aa989796959493929190610b5e565b6001546100a0565b600060015482111561019b5760405162461bcd60e51b815260040161019290610bba565b60405180910390fd5b5060009081526002602052604090206006015490565b600082815260026020526040902060080154829060ff166102095760405162461bcd60e51b8152602060048201526012602482015271506f6c6c206973206e6f742061637469766560701b6044820152606401610192565b600083815260026020908152604080832033845260050190915290205460ff16156102825760405162461bcd60e51b815260206004820152602360248201527f596f75206861766520616c726561647920766f74656420696e207468697320706044820152621bdb1b60ea1b6064820152608401610192565b6040516279657360e81b602082015260230160405160208183030381529060405280519060200120826040516020016102bb9190610be7565b6040516020818303038152906040528051906020012014806103285750604051616e6f60f01b602082015260220160405160208183030381529060405280519060200120826040516020016103109190610be7565b60405160208183030381529060405280519060200120145b61036a5760405162461bcd60e51b815260206004820152601360248201527224b73b30b634b2103b37ba329037b83a34b7b760691b6044820152606401610192565b6040516279657360e81b602082015260230160405160208183030381529060405280519060200120826040516020016103a39190610be7565b6040516020818303038152906040528051906020012014156103e65760008381526002602052604081206006018054916103dc83610c03565b9190505550610409565b600083815260026020526040812060070180549161040383610c03565b91905055505b505060009081526002602090815260408083203384526005019091529020805460ff19166001179055565b60006001548211156104585760405162461bcd60e51b815260040161019290610bba565b5060009081526002602052604090206007015490565b6000546001600160a01b031633146104b85760405162461bcd60e51b815260206004820152600d60248201526c2737ba103a34329037bbb732b960991b6044820152606401610192565b60006104c360015490565b90506104cd610890565b600081815260026020908152604090912082815585516104f5926001909201918701906108a7565b506000818152600260208181526040909220855161051b939190920191908601906108a7565b506000818152600260205260408082204260038201556004810185905560088101805460ff1916600117905560068101839055600701919091555181907f83b4acd1d3c82158f22f238eaa55f295793cbc54f16b33d775ec69ef8eaadd5b9061058990879087908790610c2c565b60405180910390a250505050565b60608060008060008060006001548811156105c45760405162461bcd60e51b815260040161019290610bba565b6000600260008a81526020019081526020016000209050806001018160020182600301548360040154846006015485600701548660080160009054906101000a900460ff1686805461061590610c62565b80601f016020809104026020016040519081016040528092919081815260200182805461064190610c62565b801561068e5780601f106106635761010080835404028352916020019161068e565b820191906000526020600020905b81548152906001019060200180831161067157829003601f168201915b505050505096508580546106a190610c62565b80601f01602080910402602001604051908101604052809291908181526020018280546106cd90610c62565b801561071a5780601f106106ef5761010080835404028352916020019161071a565b820191906000526020600020905b8154815290600101906020018083116106fd57829003601f168201915b50505050509550975097509750975097509750975050919395979092949650565b6002602052600090815260409020805460018201805491929161075d90610c62565b80601f016020809104026020016040519081016040528092919081815260200182805461078990610c62565b80156107d65780601f106107ab576101008083540402835291602001916107d6565b820191906000526020600020905b8154815290600101906020018083116107b957829003601f168201915b5050505050908060020180546107eb90610c62565b80601f016020809104026020016040519081016040528092919081815260200182805461081790610c62565b80156108645780601f1061083957610100808354040283529160200191610864565b820191906000526020600020905b81548152906001019060200180831161084757829003601f168201915b505050600384015460048501546006860154600787015460089097015495969295919450925060ff1688565b600180549060006108a083610c03565b9190505550565b8280546108b390610c62565b90600052602060002090601f0160209004810192826108d5576000855561091b565b82601f106108ee57805160ff191683800117855561091b565b8280016001018555821561091b579182015b8281111561091b578251825591602001919060010190610900565b5061092792915061092b565b5090565b5b80821115610927576000815560010161092c565b60006020828403121561095257600080fd5b5035919050565b634e487b7160e01b600052604160045260246000fd5b600082601f83011261098057600080fd5b813567ffffffffffffffff8082111561099b5761099b610959565b604051601f8301601f19908116603f011681019082821181831017156109c3576109c3610959565b816040528381528660208588010111156109dc57600080fd5b836020870160208301376000602085830101528094505050505092915050565b60008060408385031215610a0f57600080fd5b82359150602083013567ffffffffffffffff811115610a2d57600080fd5b610a398582860161096f565b9150509250929050565b600080600060608486031215610a5857600080fd5b833567ffffffffffffffff80821115610a7057600080fd5b610a7c8783880161096f565b94506020860135915080821115610a9257600080fd5b50610a9f8682870161096f565b925050604084013590509250925092565b60005b83811015610acb578181015183820152602001610ab3565b83811115610ada576000848401525b50505050565b60008151808452610af8816020860160208601610ab0565b601f01601f19169290920160200192915050565b60e081526000610b1f60e083018a610ae0565b8281036020840152610b31818a610ae0565b604084019890985250506060810194909452608084019290925260a0830152151560c09091015292915050565b60006101008a8352806020840152610b788184018b610ae0565b90508281036040840152610b8c818a610ae0565b60608401989098525050608081019490945260a084019290925260c0830152151560e0909101529392505050565b602080825260139082015272141bdb1b08191bd95cc81b9bdd08195e1a5cdd606a1b604082015260600190565b60008251610bf9818460208701610ab0565b9190910192915050565b6000600019821415610c2557634e487b7160e01b600052601160045260246000fd5b5060010190565b606081526000610c3f6060830186610ae0565b8281036020840152610c518186610ae0565b915050826040830152949350505050565b600181811c90821680610c7657607f821691505b60208210811415610c9757634e487b7160e01b600052602260045260246000fd5b5091905056fea2646970667358221220beb64a5e89761950afc2e78998943383008605528322bb2c46d67fb1456429de64736f6c63430008090033",
  "linkReferences": {},
  "deployedLinkReferences": {}
}