{
  "_format": "hh-sol-artifact-1",
  "contractName": "VotingDapp",
  "sourceName": "contracts/PrivateVoting.sol",
  "abi": [
    {
      "inputs": [],
      "stateMutability": "nonpayable",
      "type": "constructor"
    },
    {
      "anonymous": false,
      "inputs": [
        {
          "indexed": true,
          "internalType": "uint256",
          "name": "id",
          "type": "uint256"
        },
        {
          "indexed": false,
          "internalType": "string",
          "name": "title",
          "type": "string"
        },
        {
          "indexed": false,
          "internalType": "string",
          "name": "description",
          "type": "string"
        },
        {
          "indexed": false,
          "internalType": "uint256",
          "name": "duration",
          "type": "uint256"
        }
      ],
      "name": "PollCreated",
      "type": "event"
    },
    {
      "inputs": [
        {
          "internalType": "string",
          "name": "_title",
          "type": "string"
        },
        {
          "internalType": "string",
          "name": "_description",
          "type": "string"
        },
        {
          "internalType": "uint256",
          "name": "_duration",
          "type": "uint256"
        }
      ],
      "name": "createPoll",
      "outputs": [],
      "stateMutability": "nonpayable",
      "type": "function"
    },
    {
      "inputs": [],
      "name": "owner",
      "outputs": [
        {
          "internalType": "address",
          "name": "",
          "type": "address"
        }
      ],
      "stateMutability": "view",
      "type": "function"
    },
    {
      "inputs": [
        {
          "internalType": "uint256",
          "name": "",
          "type": "uint256"
        }
      ],
      "name": "polls",
      "outputs": [
        {
          "internalType": "uint256",
          "name": "id",
          "type": "uint256"
        },
        {
          "internalType": "string",
          "name": "title",
          "type": "string"
        },
        {
          "internalType": "string",
          "name": "description",
          "type": "string"
        },
        {
          "internalType": "uint256",
          "name": "startTime",
          "type": "uint256"
        },
        {
          "internalType": "uint256",
          "name": "duration",
          "type": "uint256"
        },
        {
          "internalType": "uint256",
          "name": "yesVotes",
          "type": "uint256"
        },
        {
          "internalType": "uint256",
          "name": "noVotes",
          "type": "uint256"
        },
        {
          "internalType": "bool",
          "name": "isActive",
          "type": "bool"
        }
      ],
      "stateMutability": "view",
      "type": "function"
    }
  ],
  "bytecode": "0x608060405234801561001057600080fd5b50600080546001600160a01b03191633179055610686806100326000396000f3fe608060405234801561001057600080fd5b50600436106100415760003560e01c80635dbb8063146100465780638da5cb5b1461005b578063ac2f00741461008b575b600080fd5b610059610054366004610487565b6100b2565b005b60005461006e906001600160a01b031681565b6040516001600160a01b0390911681526020015b60405180910390f35b61009e6100993660046104f4565b6101df565b60405161008298979695949392919061055a565b6000546001600160a01b031633146101005760405162461bcd60e51b815260206004820152600d60248201526c2737ba103a34329037bbb732b960991b604482015260640160405180910390fd5b600061010b60015490565b9050610115610334565b6000818152600260209081526040909120828155855161013d9260019092019187019061034b565b50600081815260026020818152604090922085516101639391909201919086019061034b565b506000818152600260205260408082204260038201556004810185905560088101805460ff1916600117905560068101839055600701919091555181907f83b4acd1d3c82158f22f238eaa55f295793cbc54f16b33d775ec69ef8eaadd5b906101d1908790879087906105b6565b60405180910390a250505050565b60026020526000908152604090208054600182018054919291610201906105ec565b80601f016020809104026020016040519081016040528092919081815260200182805461022d906105ec565b801561027a5780601f1061024f5761010080835404028352916020019161027a565b820191906000526020600020905b81548152906001019060200180831161025d57829003601f168201915b50505050509080600201805461028f906105ec565b80601f01602080910402602001604051908101604052809291908181526020018280546102bb906105ec565b80156103085780601f106102dd57610100808354040283529160200191610308565b820191906000526020600020905b8154815290600101906020018083116102eb57829003601f168201915b505050600384015460048501546006860154600787015460089097015495969295919450925060ff1688565b6001805490600061034483610627565b9190505550565b828054610357906105ec565b90600052602060002090601f01602090048101928261037957600085556103bf565b82601f1061039257805160ff19168380011785556103bf565b828001600101855582156103bf579182015b828111156103bf5782518255916020019190600101906103a4565b506103cb9291506103cf565b5090565b5b808211156103cb57600081556001016103d0565b634e487b7160e01b600052604160045260246000fd5b600082601f83011261040b57600080fd5b813567ffffffffffffffff80821115610426576104266103e4565b604051601f8301601f19908116603f0116810190828211818310171561044e5761044e6103e4565b8160405283815286602085880101111561046757600080fd5b836020870160208301376000602085830101528094505050505092915050565b60008060006060848603121561049c57600080fd5b833567ffffffffffffffff808211156104b457600080fd5b6104c0878388016103fa565b945060208601359150808211156104d657600080fd5b506104e3868287016103fa565b925050604084013590509250925092565b60006020828403121561050657600080fd5b5035919050565b6000815180845260005b8181101561053357602081850181015186830182015201610517565b81811115610545576000602083870101525b50601f01601f19169290920160200192915050565b60006101008a83528060208401526105748184018b61050d565b90508281036040840152610588818a61050d565b60608401989098525050608081019490945260a084019290925260c0830152151560e0909101529392505050565b6060815260006105c9606083018661050d565b82810360208401526105db818661050d565b915050826040830152949350505050565b600181811c9082168061060057607f821691505b6020821081141561062157634e487b7160e01b600052602260045260246000fd5b50919050565b600060001982141561064957634e487b7160e01b600052601160045260246000fd5b506001019056fea26469706673582212200fb677f0b2ed4158fe0c62d15f051afeb3ea0264365ed7776a49ee7a30e8dd8464736f6c63430008090033",
  "linkReferences": {},
  "deployedLinkReferences": {}
}