{
  "_format": "hh-sol-artifact-1",
  "contractName": "VotingDapp",
  "sourceName": "contracts/VotingDapp.sol",
  "abi": [
    {
      "inputs": [],
      "stateMutability": "nonpayable",
      "type": "constructor"
    },
    {
      "anonymous": false,
      "inputs": [
        {
          "indexed": true,
          "internalType": "uint256",
          "name": "id",
          "type": "uint256"
        },
        {
          "indexed": false,
          "internalType": "string",
          "name": "title",
          "type": "string"
        },
        {
          "indexed": false,
          "internalType": "string",
          "name": "description",
          "type": "string"
        },
        {
          "indexed": false,
          "internalType": "uint256",
          "name": "duration",
          "type": "uint256"
        },
        {
          "indexed": false,
          "internalType": "string[]",
          "name": "candidateNames",
          "type": "string[]"
        },
        {
          "indexed": false,
          "internalType": "string[]",
          "name": "candidateImages",
          "type": "string[]"
        },
        {
          "indexed": false,
          "internalType": "string[]",
          "name": "partyNames",
          "type": "string[]"
        },
        {
          "indexed": false,
          "internalType": "string[]",
          "name": "partySymbols",
          "type": "string[]"
        }
      ],
      "name": "PollCreated",
      "type": "event"
    },
    {
      "inputs": [
        {
          "internalType": "string",
          "name": "_title",
          "type": "string"
        },
        {
          "internalType": "string",
          "name": "_description",
          "type": "string"
        },
        {
          "internalType": "uint256",
          "name": "_duration",
          "type": "uint256"
        },
        {
          "internalType": "string[]",
          "name": "_candidateNames",
          "type": "string[]"
        },
        {
          "internalType": "string[]",
          "name": "_candidateImages",
          "type": "string[]"
        },
        {
          "internalType": "string[]",
          "name": "_partyNames",
          "type": "string[]"
        },
        {
          "internalType": "string[]",
          "name": "_partySymbols",
          "type": "string[]"
        }
      ],
      "name": "createPoll",
      "outputs": [],
      "stateMutability": "nonpayable",
      "type": "function"
    },
    {
      "inputs": [
        {
          "internalType": "uint256",
          "name": "_pollId",
          "type": "uint256"
        }
      ],
      "name": "getCandidateNames",
      "outputs": [
        {
          "internalType": "string[]",
          "name": "",
          "type": "string[]"
        }
      ],
      "stateMutability": "view",
      "type": "function"
    },
    {
      "inputs": [],
      "name": "getPollsCount",
      "outputs": [
        {
          "internalType": "uint256",
          "name": "",
          "type": "uint256"
        }
      ],
      "stateMutability": "view",
      "type": "function"
    },
    {
      "inputs": [
        {
          "internalType": "uint256",
          "name": "_pollId",
          "type": "uint256"
        },
        {
          "internalType": "string",
          "name": "_candidate",
          "type": "string"
        }
      ],
      "name": "getVotesForCandidate",
      "outputs": [
        {
          "internalType": "uint256",
          "name": "",
          "type": "uint256"
        }
      ],
      "stateMutability": "view",
      "type": "function"
    },
    {
      "inputs": [],
      "name": "owner",
      "outputs": [
        {
          "internalType": "address",
          "name": "",
          "type": "address"
        }
      ],
      "stateMutability": "view",
      "type": "function"
    },
    {
      "inputs": [
        {
          "internalType": "uint256",
          "name": "",
          "type": "uint256"
        }
      ],
      "name": "polls",
      "outputs": [
        {
          "internalType": "uint256",
          "name": "id",
          "type": "uint256"
        },
        {
          "internalType": "string",
          "name": "title",
          "type": "string"
        },
        {
          "internalType": "string",
          "name": "description",
          "type": "string"
        },
        {
          "internalType": "uint256",
          "name": "startTime",
          "type": "uint256"
        },
        {
          "internalType": "uint256",
          "name": "duration",
          "type": "uint256"
        },
        {
          "internalType": "bool",
          "name": "isActive",
          "type": "bool"
        }
      ],
      "stateMutability": "view",
      "type": "function"
    },
    {
      "inputs": [
        {
          "internalType": "uint256",
          "name": "_pollId",
          "type": "uint256"
        },
        {
          "internalType": "string",
          "name": "_candidate",
          "type": "string"
        }
      ],
      "name": "vote",
      "outputs": [],
      "stateMutability": "nonpayable",
      "type": "function"
    }
  ],
  "bytecode": "0x608060405234801561001057600080fd5b50600080546001600160a01b03191633179055611082806100326000396000f3fe608060405234801561001057600080fd5b506004361061007d5760003560e01c8063ac2f00741161005b578063ac2f0074146100d5578063e0995916146100fa578063f3c614051461010f578063f6480173146101225761007d565b806324108475146100825780637eb507d7146100975780638da5cb5b146100c0575b600080fd5b610095610090366004610b8d565b610135565b005b6100aa6100a5366004610b75565b610240565b6040516100b79190610c77565b60405180910390f35b6100c86103e1565b6040516100b79190610c63565b6100e86100e3366004610b75565b6103f0565b6040516100b796959493929190610f22565b61010261053a565b6040516100b79190610f19565b61010261011d366004610b8d565b610540565b610095610130366004610a7c565b61059f565b600082815260026020526040902060090154829060ff166101715760405162461bcd60e51b815260040161016890610e3b565b60405180910390fd5b600083815260026020908152604080832033845260050190915290205460ff16156101ae5760405162461bcd60e51b815260040161016890610ed6565b60008251116101cf5760405162461bcd60e51b815260040161016890610de9565b60026000848152602001908152602001600020600601826040516101f39190610c47565b90815260405190819003602001902080549060006102108361100f565b9091555050506000918252506002602090815260408083203384526005019091529020805460ff19166001179055565b60606001548211156102645760405162461bcd60e51b815260040161016890610e67565b6000828152600260205260408120600881015490919067ffffffffffffffff8111156102a057634e487b7160e01b600052604160045260246000fd5b6040519080825280602002602001820160405280156102d357816020015b60608152602001906001900390816102be5790505b50905060005b60088301548110156103d95782600801818154811061030857634e487b7160e01b600052603260045260246000fd5b90600052602060002001805461031d90610fd4565b80601f016020809104026020016040519081016040528092919081815260200182805461034990610fd4565b80156103965780601f1061036b57610100808354040283529160200191610396565b820191906000526020600020905b81548152906001019060200180831161037957829003601f168201915b50505050508282815181106103bb57634e487b7160e01b600052603260045260246000fd5b602002602001018190525080806103d19061100f565b9150506102d9565b509392505050565b6000546001600160a01b031681565b6002602052600090815260409020805460018201805491929161041290610fd4565b80601f016020809104026020016040519081016040528092919081815260200182805461043e90610fd4565b801561048b5780601f106104605761010080835404028352916020019161048b565b820191906000526020600020905b81548152906001019060200180831161046e57829003601f168201915b5050505050908060020180546104a090610fd4565b80601f01602080910402602001604051908101604052809291908181526020018280546104cc90610fd4565b80156105195780601f106104ee57610100808354040283529160200191610519565b820191906000526020600020905b8154815290600101906020018083116104fc57829003601f168201915b50505050600383015460048401546009909401549293909290915060ff1686565b60015490565b60006001548311156105645760405162461bcd60e51b815260040161016890610e67565b60026000848152602001908152602001600020600601826040516105889190610c47565b908152602001604051809103902054905092915050565b6000546001600160a01b031633146105c95760405162461bcd60e51b815260040161016890610e14565b60008451116105ea5760405162461bcd60e51b815260040161016890610e94565b60006105f461053a565b90506105fe6108e6565b60008181526002602090815260409091208281558951610626926001909201918b01906108fd565b506000818152600260208181526040909220895161064c939190920191908a01906108fd565b50600081815260026020526040812042600382015560048101889055600901805460ff191660011790555b85518110156108825760405180608001604052808783815181106106ab57634e487b7160e01b600052603260045260246000fd5b602002602001015181526020018683815181106106d857634e487b7160e01b600052603260045260246000fd5b6020026020010151815260200185838151811061070557634e487b7160e01b600052603260045260246000fd5b6020026020010151815260200184838151811061073257634e487b7160e01b600052603260045260246000fd5b60200260200101518152506002600084815260200190815260200160002060070187838151811061077357634e487b7160e01b600052603260045260246000fd5b60200260200101516040516107889190610c47565b908152602001604051809103902060008201518160000190805190602001906107b29291906108fd565b5060208281015180516107cb92600185019201906108fd565b50604082015180516107e79160028401916020909101906108fd565b50606082015180516108039160038401916020909101906108fd565b509050506002600083815260200190815260200160002060080186828151811061083d57634e487b7160e01b600052603260045260246000fd5b6020908102919091018101518254600181018455600093845292829020815161086f94919091019291909101906108fd565b508061087a8161100f565b915050610677565b50807ffb77ffc48d52c298e56d15bb002708309179930095cbdf197d2f38c71e881885898989600260008781526020019081526020016000206008018989896040516108d49796959493929190610c91565b60405180910390a25050505050505050565b600180549060006108f68361100f565b9190505550565b82805461090990610fd4565b90600052602060002090601f01602090048101928261092b5760008555610971565b82601f1061094457805160ff1916838001178555610971565b82800160010185558215610971579182015b82811115610971578251825591602001919060010190610956565b5061097d929150610981565b5090565b5b8082111561097d5760008155600101610982565b600082601f8301126109a6578081fd5b8135602067ffffffffffffffff8211156109c2576109c2611036565b6109cf8182840201610f6e565b82815281810190858301855b85811015610a04576109f2898684358b0101610a11565b845292840192908401906001016109db565b5090979650505050505050565b600082601f830112610a21578081fd5b813567ffffffffffffffff811115610a3b57610a3b611036565b610a4e601f8201601f1916602001610f6e565b818152846020838601011115610a62578283fd5b816020850160208301379081016020019190915292915050565b600080600080600080600060e0888a031215610a96578283fd5b873567ffffffffffffffff80821115610aad578485fd5b610ab98b838c01610a11565b985060208a0135915080821115610ace578485fd5b610ada8b838c01610a11565b975060408a0135965060608a0135915080821115610af6578485fd5b610b028b838c01610996565b955060808a0135915080821115610b17578485fd5b610b238b838c01610996565b945060a08a0135915080821115610b38578384fd5b610b448b838c01610996565b935060c08a0135915080821115610b59578283fd5b50610b668a828b01610996565b91505092959891949750929550565b600060208284031215610b86578081fd5b5035919050565b60008060408385031215610b9f578182fd5b82359150602083013567ffffffffffffffff811115610bbc578182fd5b610bc885828601610a11565b9150509250929050565b60008282518085526020808601955080818302840101818601855b84811015610a0457601f19868403018952610c09838351610c1b565b98840198925090830190600101610bed565b60008151808452610c33816020860160208601610fa4565b601f01601f19169290920160200192915050565b60008251610c59818460208701610fa4565b9190910192915050565b6001600160a01b0391909116815260200190565b600060208252610c8a6020830184610bd2565b9392505050565b600060e08252610ca460e083018a610c1b565b602083820381850152610cb7828b610c1b565b915088604085015283820360608501528188548084528284019150828382028501018a8652838620865b83811015610d9b57868303601f190185528154889060028104600180831680610d0b57607f831692505b8a8310811415610d2957634e487b7160e01b8d52602260045260248dfd5b610d338389610f19565b818015610d475760018114610d5857610d82565b60ff19861682528c82019650610d82565b610d6189610f98565b8f5b86811015610d7c57815484820152908501908e01610d63565b83019750505b5050509789019792955050509190910190600101610ce1565b50508681036080880152610daf818b610bd2565b94505050505082810360a0840152610dc78186610bd2565b905082810360c0840152610ddb8185610bd2565b9a9950505050505050505050565b602080825260119082015270496e76616c69642063616e64696461746560781b604082015260600190565b6020808252600d908201526c2737ba103a34329037bbb732b960991b604082015260600190565b602080825260129082015271506f6c6c206973206e6f742061637469766560701b604082015260600190565b602080825260139082015272141bdb1b08191bd95cc81b9bdd08195e1a5cdd606a1b604082015260600190565b60208082526022908201527f4174206c65617374206f6e652063616e64696461746520697320726571756972604082015261195960f21b606082015260800190565b60208082526023908201527f596f75206861766520616c726561647920766f74656420696e207468697320706040820152621bdb1b60ea1b606082015260800190565b90815260200190565b600087825260c06020830152610f3b60c0830188610c1b565b8281036040840152610f4d8188610c1b565b606084019690965250506080810192909252151560a0909101529392505050565b60405181810167ffffffffffffffff81118282101715610f9057610f90611036565b604052919050565b60009081526020902090565b60005b83811015610fbf578181015183820152602001610fa7565b83811115610fce576000848401525b50505050565b600281046001821680610fe857607f821691505b6020821081141561100957634e487b7160e01b600052602260045260246000fd5b50919050565b600060001982141561102f57634e487b7160e01b81526011600452602481fd5b5060010190565b634e487b7160e01b600052604160045260246000fdfea26469706673582212205b31f2310d305e7fa997f1f08ab88a78122b2cf965f6e15259e6be55f248ad3464736f6c63430008000033",
  "linkReferences": {},
  "deployedLinkReferences": {}
}